{"abi":[{"anonymous":false,"inputs":[{"indexed":true,"internalType":"address","name":"previousOwner","type":"address"},{"indexed":true,"internalType":"address","name":"newOwner","type":"address"}],"name":"OwnershipTransferred","type":"event"},{"anonymous":false,"inputs":[{"components":[{"internalType":"uint256","name":"licenseID","type":"uint256"},{"internalType":"bytes32","name":"work_hash","type":"bytes32"},{"internalType":"uint8","name":"licenseFee","type":"uint8"},{"internalType":"uint8","name":"breachFee","type":"uint8"},{"internalType":"bool","name":"isCommissioned","type":"bool"},{"internalType":"bool","name":"publicationIsApproved","type":"bool"},{"internalType":"uint256","name":"timeToRemove","type":"uint256"},{"internalType":"bool","name":"licenseBreached","type":"bool"},{"internalType":"bool","name":"breachFeePaid","type":"bool"},{"internalType":"uint256","name":"startdate","type":"uint256"},{"internalType":"uint256","name":"enddate","type":"uint256"}],"indexed":false,"internalType":"struct LicenseContract.License","name":"","type":"tuple"}],"name":"Status","type":"event"},{"inputs":[],"name":"LicenseContractManager","outputs":[],"stateMutability":"nonpayable","type":"function"},{"inputs":[{"internalType":"uint256","name":"","type":"uint256"}],"name":"arbiter","outputs":[{"internalType":"address","name":"","type":"address"}],"stateMutability":"view","type":"function"},{"inputs":[{"internalType":"uint256","name":"_licenseID","type":"uint256"}],"name":"commissionComments","outputs":[],"stateMutability":"nonpayable","type":"function"},{"inputs":[{"internalType":"uint256","name":"_licenseID","type":"uint256"}],"name":"declareBreach","outputs":[],"stateMutability":"nonpayable","type":"function"},{"inputs":[{"internalType":"uint256","name":"_licenseID","type":"uint256"}],"name":"declareRemoved","outputs":[],"stateMutability":"nonpayable","type":"function"},{"inputs":[{"internalType":"uint256","name":"_licenseID","type":"uint256"},{"internalType":"bool","name":"isPublished","type":"bool"}],"name":"evalPublication","outputs":[],"stateMutability":"nonpayable","type":"function"},{"inputs":[{"internalType":"uint256","name":"_licenseID","type":"uint256"}],"name":"grantApproval","outputs":[],"stateMutability":"nonpayable","type":"function"},{"inputs":[{"internalType":"uint256","name":"","type":"uint256"}],"name":"licensee","outputs":[{"internalType":"address","name":"","type":"address"}],"stateMutability":"view","type":"function"},{"inputs":[{"internalType":"uint256","name":"","type":"uint256"}],"name":"licenses","outputs":[{"internalType":"uint256","name":"licenseID","type":"uint256"},{"internalType":"bytes32","name":"work_hash","type":"bytes32"},{"internalType":"uint8","name":"licenseFee","type":"uint8"},{"internalType":"uint8","name":"breachFee","type":"uint8"},{"internalType":"bool","name":"isCommissioned","type":"bool"},{"internalType":"bool","name":"publicationIsApproved","type":"bool"},{"internalType":"uint256","name":"timeToRemove","type":"uint256"},{"internalType":"bool","name":"licenseBreached","type":"bool"},{"internalType":"bool","name":"breachFeePaid","type":"bool"},{"internalType":"uint256","name":"startdate","type":"uint256"},{"internalType":"uint256","name":"enddate","type":"uint256"}],"stateMutability":"view","type":"function"},{"inputs":[{"internalType":"uint256","name":"","type":"uint256"}],"name":"licensor","outputs":[{"internalType":"address","name":"","type":"address"}],"stateMutability":"view","type":"function"},{"inputs":[{"components":[{"internalType":"uint256","name":"licenseID","type":"uint256"},{"internalType":"bytes32","name":"work_hash","type":"bytes32"},{"internalType":"uint8","name":"licenseFee","type":"uint8"},{"internalType":"uint8","name":"breachFee","type":"uint8"},{"internalType":"bool","name":"isCommissioned","type":"bool"},{"internalType":"bool","name":"publicationIsApproved","type":"bool"},{"internalType":"uint256","name":"timeToRemove","type":"uint256"},{"internalType":"bool","name":"licenseBreached","type":"bool"},{"internalType":"bool","name":"breachFeePaid","type":"bool"},{"internalType":"uint256","name":"startdate","type":"uint256"},{"internalType":"uint256","name":"enddate","type":"uint256"}],"internalType":"struct LicenseContract.License","name":"_license","type":"tuple"}],"name":"newLicense","outputs":[{"internalType":"uint256","name":"_licenseID","type":"uint256"}],"stateMutability":"nonpayable","type":"function"},{"inputs":[],"name":"owner","outputs":[{"internalType":"address","name":"","type":"address"}],"stateMutability":"view","type":"function"},{"inputs":[],"name":"renounceOwnership","outputs":[],"stateMutability":"nonpayable","type":"function"},{"inputs":[{"internalType":"address","name":"newOwner","type":"address"}],"name":"transferOwnership","outputs":[],"stateMutability":"nonpayable","type":"function"}],"bytecode":"608060405234801561001057600080fd5b50600061001b61006a565b600080546001600160a01b0319166001600160a01b0383169081178255604051929350917f8be0079c531659141344cd1fd0a4f28419497f9722a3daafe3b4186f6b6457e0908290a35061006e565b3390565b610c088061007d6000396000f3fe608060405234801561001057600080fd5b50600436106100ea5760003560e01c80638da5cb5b1161008c578063d40b7f7711610066578063d40b7f77146101d3578063f2fde38b146101e6578063f3abd74d146101f9578063f833eb431461020c576100ea565b80638da5cb5b146101a55780638ed94935146101ad578063a8afe030146101c0576100ea565b8063715018a6116100c8578063715018a6146101575780637c79d6c81461015f5780637ca629971461017257806385f003d914610185576100ea565b806321a21961146100ef578063337908451461010457806360bf814714610137575b600080fd5b6101026100fd366004610958565b610214565b005b610117610112366004610958565b6102e8565b60405161012e9b9a99989796959493929190610b20565b60405180910390f35b61014a61014536600461089c565b610350565b60405161012e9190610b17565b6101026104dc565b61010261016d366004610958565b610565565b610102610180366004610958565b6105b1565b610198610193366004610958565b61060d565b60405161012e91906109a8565b610198610628565b6101986101bb366004610958565b610637565b6101026101ce366004610958565b610652565b6101986101e1366004610958565b6106bb565b6101026101f436600461086e565b6106d6565b610102610207366004610970565b610796565b610102610847565b6000818152600360205260409020546001600160a01b03163381146102545760405162461bcd60e51b815260040161024b90610a37565b60405180910390fd5b6000828152600460208190526040909120908101805460ff191660011790819055610100900460ff166102e35760048101805461ff001916905560008381526001602052604080822054600284015491516001600160a01b039091169261010090920460ff1680156108fc0292909190818181858888f193505050501580156102e1573d6000803e3d6000fd5b505b505050565b600460208190526000918252604090912080546001820154600283015460038401549484015460058501546006909501549395929460ff808416956101008086048316966201000087048416966301000000900484169590948185169492909104909116918b565b600061035a610849565b6001600160a01b031661036b610628565b6001600160a01b0316146103915760405162461bcd60e51b815260040161024b90610a02565b600081815260026020526040808220548482015191516001600160a01b039091169260ff90921680156108fc0292909190818181858888f193505050501580156103df573d6000803e3d6000fd5b506103e8610628565b600082815260016020818152604080842080546001600160a01b03969096166001600160a01b031990961695909517909455600480825292849020865181559086015191810191909155918401516002830180546060870151608088015160a0890151151563010000000263ff00000019911515620100000262ff00001960ff94851661010090810261ff00199690991660ff19978816178616989098171617919091161790925560c0870151600386015560e0870151938501805488850151151590940294151593909116929092171691909117905561012083015160058201556101408301516006909101555b919050565b6104e4610849565b6001600160a01b03166104f5610628565b6001600160a01b03161461051b5760405162461bcd60e51b815260040161024b90610a02565b600080546040516001600160a01b03909116907f8be0079c531659141344cd1fd0a4f28419497f9722a3daafe3b4186f6b6457e0908390a3600080546001600160a01b0319169055565b6000818152600360205260409020546001600160a01b031633811461059c5760405162461bcd60e51b815260040161024b90610a37565b50600090815260046020526040812060030155565b6000818152600160205260409020546001600160a01b03163381146105e85760405162461bcd60e51b815260040161024b90610a37565b506000908152600460205260409020600201805463ff00000019166301000000179055565b6001602052600090815260409020546001600160a01b031681565b6000546001600160a01b031690565b6002602052600090815260409020546001600160a01b031681565b6000818152600160205260409020546001600160a01b03163381146106895760405162461bcd60e51b815260040161024b90610a37565b506000908152600460205260409020600201805462ff00001963ff000000199091166301000000171662010000179055565b6003602052600090815260409020546001600160a01b031681565b6106de610849565b6001600160a01b03166106ef610628565b6001600160a01b0316146107155760405162461bcd60e51b815260040161024b90610a02565b6001600160a01b03811661073b5760405162461bcd60e51b815260040161024b906109bc565b600080546040516001600160a01b03808516939216917f8be0079c531659141344cd1fd0a4f28419497f9722a3daafe3b4186f6b6457e091a3600080546001600160a01b0319166001600160a01b0392909216919091179055565b6000828152600460205260409020811561080b578180156107c25750600281015462010000900460ff16155b806107d9575060028101546301000000900460ff16155b156107e95742600382015561080b565b60038101546107fb9062015180610bae565b42111561080b5761080b83610214565b7f01c06d4e8f2b172260a22902b4aa7263f7b89840d0d16b398fdeb565b951da678160405161083a9190610a67565b60405180910390a1505050565b565b3390565b803580151581146104d757600080fd5b803560ff811681146104d757600080fd5b60006020828403121561087f578081fd5b81356001600160a01b0381168114610895578182fd5b9392505050565b60006101608083850312156108af578182fd5b6108b881610b76565b905082358152602083013560208201526108d46040840161085d565b60408201526108e56060840161085d565b60608201526108f66080840161084d565b608082015261090760a0840161084d565b60a082015260c083013560c082015261092260e0840161084d565b60e082015261010061093581850161084d565b908201526101208381013590820152610140928301359281019290925250919050565b600060208284031215610969578081fd5b5035919050565b60008060408385031215610982578081fd5b823591506109926020840161084d565b90509250929050565b15159052565b60ff169052565b6001600160a01b0391909116815260200190565b60208082526026908201527f4f776e61626c653a206e6577206f776e657220697320746865207a65726f206160408201526564647265737360d01b606082015260800190565b6020808252818101527f4f776e61626c653a2063616c6c6572206973206e6f7420746865206f776e6572604082015260600190565b60208082526016908201527529b2b73232b9103737ba1030baba3437b934bd32b21760511b604082015260600190565b8154815260018201546020820152600282015461016082019060ff610a91604085018284166109a1565b610aa360608501828460081c166109a1565b610ab560808501828460101c1661099b565b610ac760a08501828460181c1661099b565b600385015460c085015260048501549150610ae760e0850182841661099b565b610afa6101008501828460081c1661099b565b505060058301546101208301526006909201546101409091015290565b90815260200190565b9a8b5260208b019990995260ff97881660408b0152959096166060890152921515608088015290151560a087015260c0860152151560e08501529015156101008401526101208301526101408201526101600190565b60405181810167ffffffffffffffff81118282101715610ba657634e487b7160e01b600052604160045260246000fd5b604052919050565b60008219821115610bcd57634e487b7160e01b81526011600452602481fd5b50019056fea2646970667358221220eb2d7048ddaeb86f1756e974c86705ec51bfa777404648437cae896ca09522a464736f6c63430008000033","bytecodeSha1":"5fd5168b7ca9cfd26fa3fb6e4c9cf1f4ae1939be","compiler":{"evm_version":"istanbul","optimizer":{"enabled":true,"runs":200},"version":"0.8.0+commit.c7dfd78e"},"contractName":"LicenseContract","language":"Solidity","natspec":{"author":"Florian Idelberger","details":"//@TODO payment of owner and withdrawal of balance not implemented. transfer possible via ownable.sol","kind":"dev","methods":{"commissionComments(uint256)":{"params":{"_licenseID":"of the license to be modified"}},"declareBreach(uint256)":{"params":{"_licenseID":"of the license to be modified"}},"declareRemoved(uint256)":{"params":{"_licenseID":"of the license to be modified"}},"evalPublication(uint256,bool)":{"params":{"_licenseID":"of the license to be modified"}},"grantApproval(uint256)":{"params":{"_licenseID":"of the license to be modified"}},"newLicense((uint256,bytes32,uint8,uint8,bool,bool,uint256,bool,bool,uint256,uint256))":{"details":"T","notice":"Create a new license and add it to the mapping of licenses.","params":{"_license":"pass a license struct"},"returns":{"_licenseID":"of the created license."}},"owner()":{"details":"Returns the address of the current owner."},"renounceOwnership()":{"details":"Leaves the contract without owner. It will not be possible to call `onlyOwner` functions anymore. Can only be called by the current owner. NOTE: Renouncing ownership will leave the contract without an owner, thereby removing any functionality that is only available to the owner."},"transferOwnership(address)":{"details":"Transfers ownership of the contract to a new account (`newOwner`). Can only be called by the current owner."}},"notice":"A license contract to provide software evaluation licenses and functions to check status","title":"A software evaluation license system","version":1},"opcodes":"PUSH1 0x80 PUSH1 0x40 MSTORE CALLVALUE DUP1 ISZERO PUSH2 0x10 JUMPI PUSH1 0x0 DUP1 REVERT JUMPDEST POP PUSH1 0x4 CALLDATASIZE LT PUSH2 0xEA JUMPI PUSH1 0x0 CALLDATALOAD PUSH1 0xE0 SHR DUP1 PUSH4 0x8DA5CB5B GT PUSH2 0x8C JUMPI DUP1 PUSH4 0xD40B7F77 GT PUSH2 0x66 JUMPI DUP1 PUSH4 0xD40B7F77 EQ PUSH2 0x1D3 JUMPI DUP1 PUSH4 0xF2FDE38B EQ PUSH2 0x1E6 JUMPI DUP1 PUSH4 0xF3ABD74D EQ PUSH2 0x1F9 JUMPI DUP1 PUSH4 0xF833EB43 EQ PUSH2 0x20C JUMPI PUSH2 0xEA JUMP JUMPDEST DUP1 PUSH4 0x8DA5CB5B EQ PUSH2 0x1A5 JUMPI DUP1 PUSH4 0x8ED94935 EQ PUSH2 0x1AD JUMPI DUP1 PUSH4 0xA8AFE030 EQ PUSH2 0x1C0 JUMPI PUSH2 0xEA JUMP JUMPDEST DUP1 PUSH4 0x715018A6 GT PUSH2 0xC8 JUMPI DUP1 PUSH4 0x715018A6 EQ PUSH2 0x157 JUMPI DUP1 PUSH4 0x7C79D6C8 EQ PUSH2 0x15F JUMPI DUP1 PUSH4 0x7CA62997 EQ PUSH2 0x172 JUMPI DUP1 PUSH4 0x85F003D9 EQ PUSH2 0x185 JUMPI PUSH2 0xEA JUMP JUMPDEST DUP1 PUSH4 0x21A21961 EQ PUSH2 0xEF JUMPI DUP1 PUSH4 0x33790845 EQ PUSH2 0x104 JUMPI DUP1 PUSH4 0x60BF8147 EQ PUSH2 0x137 JUMPI JUMPDEST PUSH1 0x0 DUP1 REVERT JUMPDEST PUSH2 0x102 PUSH2 0xFD CALLDATASIZE PUSH1 0x4 PUSH2 0x958 JUMP JUMPDEST PUSH2 0x214 JUMP JUMPDEST STOP JUMPDEST PUSH2 0x117 PUSH2 0x112 CALLDATASIZE PUSH1 0x4 PUSH2 0x958 JUMP JUMPDEST PUSH2 0x2E8 JUMP JUMPDEST PUSH1 0x40 MLOAD PUSH2 0x12E SWAP12 SWAP11 SWAP10 SWAP9 SWAP8 SWAP7 SWAP6 SWAP5 SWAP4 SWAP3 SWAP2 SWAP1 PUSH2 0xB20 JUMP JUMPDEST PUSH1 0x40 MLOAD DUP1 SWAP2 SUB SWAP1 RETURN JUMPDEST PUSH2 0x14A PUSH2 0x145 CALLDATASIZE PUSH1 0x4 PUSH2 0x89C JUMP JUMPDEST PUSH2 0x350 JUMP JUMPDEST PUSH1 0x40 MLOAD PUSH2 0x12E SWAP2 SWAP1 PUSH2 0xB17 JUMP JUMPDEST PUSH2 0x102 PUSH2 0x4DC JUMP JUMPDEST PUSH2 0x102 PUSH2 0x16D CALLDATASIZE PUSH1 0x4 PUSH2 0x958 JUMP JUMPDEST PUSH2 0x565 JUMP JUMPDEST PUSH2 0x102 PUSH2 0x180 CALLDATASIZE PUSH1 0x4 PUSH2 0x958 JUMP JUMPDEST PUSH2 0x5B1 JUMP JUMPDEST PUSH2 0x198 PUSH2 0x193 CALLDATASIZE PUSH1 0x4 PUSH2 0x958 JUMP JUMPDEST PUSH2 0x60D JUMP JUMPDEST PUSH1 0x40 MLOAD PUSH2 0x12E SWAP2 SWAP1 PUSH2 0x9A8 JUMP JUMPDEST PUSH2 0x198 PUSH2 0x628 JUMP JUMPDEST PUSH2 0x198 PUSH2 0x1BB CALLDATASIZE PUSH1 0x4 PUSH2 0x958 JUMP JUMPDEST PUSH2 0x637 JUMP JUMPDEST PUSH2 0x102 PUSH2 0x1CE CALLDATASIZE PUSH1 0x4 PUSH2 0x958 JUMP JUMPDEST PUSH2 0x652 JUMP JUMPDEST PUSH2 0x198 PUSH2 0x1E1 CALLDATASIZE PUSH1 0x4 PUSH2 0x958 JUMP JUMPDEST PUSH2 0x6BB JUMP JUMPDEST PUSH2 0x102 PUSH2 0x1F4 CALLDATASIZE PUSH1 0x4 PUSH2 0x86E JUMP JUMPDEST PUSH2 0x6D6 JUMP JUMPDEST PUSH2 0x102 PUSH2 0x207 CALLDATASIZE PUSH1 0x4 PUSH2 0x970 JUMP JUMPDEST PUSH2 0x796 JUMP JUMPDEST PUSH2 0x102 PUSH2 0x847 JUMP JUMPDEST PUSH1 0x0 DUP2 DUP2 MSTORE PUSH1 0x3 PUSH1 0x20 MSTORE PUSH1 0x40 SWAP1 KECCAK256 SLOAD PUSH1 0x1 PUSH1 0x1 PUSH1 0xA0 SHL SUB AND CALLER DUP2 EQ PUSH2 0x254 JUMPI PUSH1 0x40 MLOAD PUSH3 0x461BCD PUSH1 0xE5 SHL DUP2 MSTORE PUSH1 0x4 ADD PUSH2 0x24B SWAP1 PUSH2 0xA37 JUMP JUMPDEST PUSH1 0x40 MLOAD DUP1 SWAP2 SUB SWAP1 REVERT JUMPDEST PUSH1 0x0 DUP3 DUP2 MSTORE PUSH1 0x4 PUSH1 0x20 DUP2 SWAP1 MSTORE PUSH1 0x40 SWAP1 SWAP2 KECCAK256 SWAP1 DUP2 ADD DUP1 SLOAD PUSH1 0xFF NOT AND PUSH1 0x1 OR SWAP1 DUP2 SWAP1 SSTORE PUSH2 0x100 SWAP1 DIV PUSH1 0xFF AND PUSH2 0x2E3 JUMPI PUSH1 0x4 DUP2 ADD DUP1 SLOAD PUSH2 0xFF00 NOT AND SWAP1 SSTORE PUSH1 0x0 DUP4 DUP2 MSTORE PUSH1 0x1 PUSH1 0x20 MSTORE PUSH1 0x40 DUP1 DUP3 KECCAK256 SLOAD PUSH1 0x2 DUP5 ADD SLOAD SWAP2 MLOAD PUSH1 0x1 PUSH1 0x1 PUSH1 0xA0 SHL SUB SWAP1 SWAP2 AND SWAP3 PUSH2 0x100 SWAP1 SWAP3 DIV PUSH1 0xFF AND DUP1 ISZERO PUSH2 0x8FC MUL SWAP3 SWAP1 SWAP2 SWAP1 DUP2 DUP2 DUP2 DUP6 DUP9 DUP9 CALL SWAP4 POP POP POP POP ISZERO DUP1 ISZERO PUSH2 0x2E1 JUMPI RETURNDATASIZE PUSH1 0x0 DUP1 RETURNDATACOPY RETURNDATASIZE PUSH1 0x0 REVERT JUMPDEST POP JUMPDEST POP POP POP JUMP JUMPDEST PUSH1 0x4 PUSH1 0x20 DUP2 SWAP1 MSTORE PUSH1 0x0 SWAP2 DUP3 MSTORE PUSH1 0x40 SWAP1 SWAP2 KECCAK256 DUP1 SLOAD PUSH1 0x1 DUP3 ADD SLOAD PUSH1 0x2 DUP4 ADD SLOAD PUSH1 0x3 DUP5 ADD SLOAD SWAP5 DUP5 ADD SLOAD PUSH1 0x5 DUP6 ADD SLOAD PUSH1 0x6 SWAP1 SWAP6 ADD SLOAD SWAP4 SWAP6 SWAP3 SWAP5 PUSH1 0xFF DUP1 DUP5 AND SWAP6 PUSH2 0x100 DUP1 DUP7 DIV DUP4 AND SWAP7 PUSH3 0x10000 DUP8 DIV DUP5 AND SWAP7 PUSH4 0x1000000 SWAP1 DIV DUP5 AND SWAP6 SWAP1 SWAP5 DUP2 DUP6 AND SWAP5 SWAP3 SWAP1 SWAP2 DIV SWAP1 SWAP2 AND SWAP2 DUP12 JUMP JUMPDEST PUSH1 0x0 PUSH2 0x35A PUSH2 0x849 JUMP JUMPDEST PUSH1 0x1 PUSH1 0x1 PUSH1 0xA0 SHL SUB AND PUSH2 0x36B PUSH2 0x628 JUMP JUMPDEST PUSH1 0x1 PUSH1 0x1 PUSH1 0xA0 SHL SUB AND EQ PUSH2 0x391 JUMPI PUSH1 0x40 MLOAD PUSH3 0x461BCD PUSH1 0xE5 SHL DUP2 MSTORE PUSH1 0x4 ADD PUSH2 0x24B SWAP1 PUSH2 0xA02 JUMP JUMPDEST PUSH1 0x0 DUP2 DUP2 MSTORE PUSH1 0x2 PUSH1 0x20 MSTORE PUSH1 0x40 DUP1 DUP3 KECCAK256 SLOAD DUP5 DUP3 ADD MLOAD SWAP2 MLOAD PUSH1 0x1 PUSH1 0x1 PUSH1 0xA0 SHL SUB SWAP1 SWAP2 AND SWAP3 PUSH1 0xFF SWAP1 SWAP3 AND DUP1 ISZERO PUSH2 0x8FC MUL SWAP3 SWAP1 SWAP2 SWAP1 DUP2 DUP2 DUP2 DUP6 DUP9 DUP9 CALL SWAP4 POP POP POP POP ISZERO DUP1 ISZERO PUSH2 0x3DF JUMPI RETURNDATASIZE PUSH1 0x0 DUP1 RETURNDATACOPY RETURNDATASIZE PUSH1 0x0 REVERT JUMPDEST POP PUSH2 0x3E8 PUSH2 0x628 JUMP JUMPDEST PUSH1 0x0 DUP3 DUP2 MSTORE PUSH1 0x1 PUSH1 0x20 DUP2 DUP2 MSTORE PUSH1 0x40 DUP1 DUP5 KECCAK256 DUP1 SLOAD PUSH1 0x1 PUSH1 0x1 PUSH1 0xA0 SHL SUB SWAP7 SWAP1 SWAP7 AND PUSH1 0x1 PUSH1 0x1 PUSH1 0xA0 SHL SUB NOT SWAP1 SWAP7 AND SWAP6 SWAP1 SWAP6 OR SWAP1 SWAP5 SSTORE PUSH1 0x4 DUP1 DUP3 MSTORE SWAP3 DUP5 SWAP1 KECCAK256 DUP7 MLOAD DUP2 SSTORE SWAP1 DUP7 ADD MLOAD SWAP2 DUP2 ADD SWAP2 SWAP1 SWAP2 SSTORE SWAP2 DUP5 ADD MLOAD PUSH1 0x2 DUP4 ADD DUP1 SLOAD PUSH1 0x60 DUP8 ADD MLOAD PUSH1 0x80 DUP9 ADD MLOAD PUSH1 0xA0 DUP10 ADD MLOAD ISZERO ISZERO PUSH4 0x1000000 MUL PUSH4 0xFF000000 NOT SWAP2 ISZERO ISZERO PUSH3 0x10000 MUL PUSH3 0xFF0000 NOT PUSH1 0xFF SWAP5 DUP6 AND PUSH2 0x100 SWAP1 DUP2 MUL PUSH2 0xFF00 NOT SWAP7 SWAP1 SWAP10 AND PUSH1 0xFF NOT SWAP8 DUP9 AND OR DUP7 AND SWAP9 SWAP1 SWAP9 OR AND OR SWAP2 SWAP1 SWAP2 AND OR SWAP1 SWAP3 SSTORE PUSH1 0xC0 DUP8 ADD MLOAD PUSH1 0x3 DUP7 ADD SSTORE PUSH1 0xE0 DUP8 ADD MLOAD SWAP4 DUP6 ADD DUP1 SLOAD DUP9 DUP6 ADD MLOAD ISZERO ISZERO SWAP1 SWAP5 MUL SWAP5 ISZERO ISZERO SWAP4 SWAP1 SWAP2 AND SWAP3 SWAP1 SWAP3 OR AND SWAP2 SWAP1 SWAP2 OR SWAP1 SSTORE PUSH2 0x120 DUP4 ADD MLOAD PUSH1 0x5 DUP3 ADD SSTORE PUSH2 0x140 DUP4 ADD MLOAD PUSH1 0x6 SWAP1 SWAP2 ADD SSTORE JUMPDEST SWAP2 SWAP1 POP JUMP JUMPDEST PUSH2 0x4E4 PUSH2 0x849 JUMP JUMPDEST PUSH1 0x1 PUSH1 0x1 PUSH1 0xA0 SHL SUB AND PUSH2 0x4F5 PUSH2 0x628 JUMP JUMPDEST PUSH1 0x1 PUSH1 0x1 PUSH1 0xA0 SHL SUB AND EQ PUSH2 0x51B JUMPI PUSH1 0x40 MLOAD PUSH3 0x461BCD PUSH1 0xE5 SHL DUP2 MSTORE PUSH1 0x4 ADD PUSH2 0x24B SWAP1 PUSH2 0xA02 JUMP JUMPDEST PUSH1 0x0 DUP1 SLOAD PUSH1 0x40 MLOAD PUSH1 0x1 PUSH1 0x1 PUSH1 0xA0 SHL SUB SWAP1 SWAP2 AND SWAP1 PUSH32 0x8BE0079C531659141344CD1FD0A4F28419497F9722A3DAAFE3B4186F6B6457E0 SWAP1 DUP4 SWAP1 LOG3 PUSH1 0x0 DUP1 SLOAD PUSH1 0x1 PUSH1 0x1 PUSH1 0xA0 SHL SUB NOT AND SWAP1 SSTORE JUMP JUMPDEST PUSH1 0x0 DUP2 DUP2 MSTORE PUSH1 0x3 PUSH1 0x20 MSTORE PUSH1 0x40 SWAP1 KECCAK256 SLOAD PUSH1 0x1 PUSH1 0x1 PUSH1 0xA0 SHL SUB AND CALLER DUP2 EQ PUSH2 0x59C JUMPI PUSH1 0x40 MLOAD PUSH3 0x461BCD PUSH1 0xE5 SHL DUP2 MSTORE PUSH1 0x4 ADD PUSH2 0x24B SWAP1 PUSH2 0xA37 JUMP JUMPDEST POP PUSH1 0x0 SWAP1 DUP2 MSTORE PUSH1 0x4 PUSH1 0x20 MSTORE PUSH1 0x40 DUP2 KECCAK256 PUSH1 0x3 ADD SSTORE JUMP JUMPDEST PUSH1 0x0 DUP2 DUP2 MSTORE PUSH1 0x1 PUSH1 0x20 MSTORE PUSH1 0x40 SWAP1 KECCAK256 SLOAD PUSH1 0x1 PUSH1 0x1 PUSH1 0xA0 SHL SUB AND CALLER DUP2 EQ PUSH2 0x5E8 JUMPI PUSH1 0x40 MLOAD PUSH3 0x461BCD PUSH1 0xE5 SHL DUP2 MSTORE PUSH1 0x4 ADD PUSH2 0x24B SWAP1 PUSH2 0xA37 JUMP JUMPDEST POP PUSH1 0x0 SWAP1 DUP2 MSTORE PUSH1 0x4 PUSH1 0x20 MSTORE PUSH1 0x40 SWAP1 KECCAK256 PUSH1 0x2 ADD DUP1 SLOAD PUSH4 0xFF000000 NOT AND PUSH4 0x1000000 OR SWAP1 SSTORE JUMP JUMPDEST PUSH1 0x1 PUSH1 0x20 MSTORE PUSH1 0x0 SWAP1 DUP2 MSTORE PUSH1 0x40 SWAP1 KECCAK256 SLOAD PUSH1 0x1 PUSH1 0x1 PUSH1 0xA0 SHL SUB AND DUP2 JUMP JUMPDEST PUSH1 0x0 SLOAD PUSH1 0x1 PUSH1 0x1 PUSH1 0xA0 SHL SUB AND SWAP1 JUMP JUMPDEST PUSH1 0x2 PUSH1 0x20 MSTORE PUSH1 0x0 SWAP1 DUP2 MSTORE PUSH1 0x40 SWAP1 KECCAK256 SLOAD PUSH1 0x1 PUSH1 0x1 PUSH1 0xA0 SHL SUB AND DUP2 JUMP JUMPDEST PUSH1 0x0 DUP2 DUP2 MSTORE PUSH1 0x1 PUSH1 0x20 MSTORE PUSH1 0x40 SWAP1 KECCAK256 SLOAD PUSH1 0x1 PUSH1 0x1 PUSH1 0xA0 SHL SUB AND CALLER DUP2 EQ PUSH2 0x689 JUMPI PUSH1 0x40 MLOAD PUSH3 0x461BCD PUSH1 0xE5 SHL DUP2 MSTORE PUSH1 0x4 ADD PUSH2 0x24B SWAP1 PUSH2 0xA37 JUMP JUMPDEST POP PUSH1 0x0 SWAP1 DUP2 MSTORE PUSH1 0x4 PUSH1 0x20 MSTORE PUSH1 0x40 SWAP1 KECCAK256 PUSH1 0x2 ADD DUP1 SLOAD PUSH3 0xFF0000 NOT PUSH4 0xFF000000 NOT SWAP1 SWAP2 AND PUSH4 0x1000000 OR AND PUSH3 0x10000 OR SWAP1 SSTORE JUMP JUMPDEST PUSH1 0x3 PUSH1 0x20 MSTORE PUSH1 0x0 SWAP1 DUP2 MSTORE PUSH1 0x40 SWAP1 KECCAK256 SLOAD PUSH1 0x1 PUSH1 0x1 PUSH1 0xA0 SHL SUB AND DUP2 JUMP JUMPDEST PUSH2 0x6DE PUSH2 0x849 JUMP JUMPDEST PUSH1 0x1 PUSH1 0x1 PUSH1 0xA0 SHL SUB AND PUSH2 0x6EF PUSH2 0x628 JUMP JUMPDEST PUSH1 0x1 PUSH1 0x1 PUSH1 0xA0 SHL SUB AND EQ PUSH2 0x715 JUMPI PUSH1 0x40 MLOAD PUSH3 0x461BCD PUSH1 0xE5 SHL DUP2 MSTORE PUSH1 0x4 ADD PUSH2 0x24B SWAP1 PUSH2 0xA02 JUMP JUMPDEST PUSH1 0x1 PUSH1 0x1 PUSH1 0xA0 SHL SUB DUP2 AND PUSH2 0x73B JUMPI PUSH1 0x40 MLOAD PUSH3 0x461BCD PUSH1 0xE5 SHL DUP2 MSTORE PUSH1 0x4 ADD PUSH2 0x24B SWAP1 PUSH2 0x9BC JUMP JUMPDEST PUSH1 0x0 DUP1 SLOAD PUSH1 0x40 MLOAD PUSH1 0x1 PUSH1 0x1 PUSH1 0xA0 SHL SUB DUP1 DUP6 AND SWAP4 SWAP3 AND SWAP2 PUSH32 0x8BE0079C531659141344CD1FD0A4F28419497F9722A3DAAFE3B4186F6B6457E0 SWAP2 LOG3 PUSH1 0x0 DUP1 SLOAD PUSH1 0x1 PUSH1 0x1 PUSH1 0xA0 SHL SUB NOT AND PUSH1 0x1 PUSH1 0x1 PUSH1 0xA0 SHL SUB SWAP3 SWAP1 SWAP3 AND SWAP2 SWAP1 SWAP2 OR SWAP1 SSTORE JUMP JUMPDEST PUSH1 0x0 DUP3 DUP2 MSTORE PUSH1 0x4 PUSH1 0x20 MSTORE PUSH1 0x40 SWAP1 KECCAK256 DUP2 ISZERO PUSH2 0x80B JUMPI DUP2 DUP1 ISZERO PUSH2 0x7C2 JUMPI POP PUSH1 0x2 DUP2 ADD SLOAD PUSH3 0x10000 SWAP1 DIV PUSH1 0xFF AND ISZERO JUMPDEST DUP1 PUSH2 0x7D9 JUMPI POP PUSH1 0x2 DUP2 ADD SLOAD PUSH4 0x1000000 SWAP1 DIV PUSH1 0xFF AND ISZERO JUMPDEST ISZERO PUSH2 0x7E9 JUMPI TIMESTAMP PUSH1 0x3 DUP3 ADD SSTORE PUSH2 0x80B JUMP JUMPDEST PUSH1 0x3 DUP2 ADD SLOAD PUSH2 0x7FB SWAP1 PUSH3 0x15180 PUSH2 0xBAE JUMP JUMPDEST TIMESTAMP GT ISZERO PUSH2 0x80B JUMPI PUSH2 0x80B DUP4 PUSH2 0x214 JUMP JUMPDEST PUSH32 0x1C06D4E8F2B172260A22902B4AA7263F7B89840D0D16B398FDEB565B951DA67 DUP2 PUSH1 0x40 MLOAD PUSH2 0x83A SWAP2 SWAP1 PUSH2 0xA67 JUMP JUMPDEST PUSH1 0x40 MLOAD DUP1 SWAP2 SUB SWAP1 LOG1 POP POP POP JUMP JUMPDEST JUMP JUMPDEST CALLER SWAP1 JUMP JUMPDEST DUP1 CALLDATALOAD DUP1 ISZERO ISZERO DUP2 EQ PUSH2 0x4D7 JUMPI PUSH1 0x0 DUP1 REVERT JUMPDEST DUP1 CALLDATALOAD PUSH1 0xFF DUP2 AND DUP2 EQ PUSH2 0x4D7 JUMPI PUSH1 0x0 DUP1 REVERT JUMPDEST PUSH1 0x0 PUSH1 0x20 DUP3 DUP5 SUB SLT ISZERO PUSH2 0x87F JUMPI DUP1 DUP2 REVERT JUMPDEST DUP2 CALLDATALOAD PUSH1 0x1 PUSH1 0x1 PUSH1 0xA0 SHL SUB DUP2 AND DUP2 EQ PUSH2 0x895 JUMPI DUP2 DUP3 REVERT JUMPDEST SWAP4 SWAP3 POP POP POP JUMP JUMPDEST PUSH1 0x0 PUSH2 0x160 DUP1 DUP4 DUP6 SUB SLT ISZERO PUSH2 0x8AF JUMPI DUP2 DUP3 REVERT JUMPDEST PUSH2 0x8B8 DUP2 PUSH2 0xB76 JUMP JUMPDEST SWAP1 POP DUP3 CALLDATALOAD DUP2 MSTORE PUSH1 0x20 DUP4 ADD CALLDATALOAD PUSH1 0x20 DUP3 ADD MSTORE PUSH2 0x8D4 PUSH1 0x40 DUP5 ADD PUSH2 0x85D JUMP JUMPDEST PUSH1 0x40 DUP3 ADD MSTORE PUSH2 0x8E5 PUSH1 0x60 DUP5 ADD PUSH2 0x85D JUMP JUMPDEST PUSH1 0x60 DUP3 ADD MSTORE PUSH2 0x8F6 PUSH1 0x80 DUP5 ADD PUSH2 0x84D JUMP JUMPDEST PUSH1 0x80 DUP3 ADD MSTORE PUSH2 0x907 PUSH1 0xA0 DUP5 ADD PUSH2 0x84D JUMP JUMPDEST PUSH1 0xA0 DUP3 ADD MSTORE PUSH1 0xC0 DUP4 ADD CALLDATALOAD PUSH1 0xC0 DUP3 ADD MSTORE PUSH2 0x922 PUSH1 0xE0 DUP5 ADD PUSH2 0x84D JUMP JUMPDEST PUSH1 0xE0 DUP3 ADD MSTORE PUSH2 0x100 PUSH2 0x935 DUP2 DUP6 ADD PUSH2 0x84D JUMP JUMPDEST SWAP1 DUP3 ADD MSTORE PUSH2 0x120 DUP4 DUP2 ADD CALLDATALOAD SWAP1 DUP3 ADD MSTORE PUSH2 0x140 SWAP3 DUP4 ADD CALLDATALOAD SWAP3 DUP2 ADD SWAP3 SWAP1 SWAP3 MSTORE POP SWAP2 SWAP1 POP JUMP JUMPDEST PUSH1 0x0 PUSH1 0x20 DUP3 DUP5 SUB SLT ISZERO PUSH2 0x969 JUMPI DUP1 DUP2 REVERT JUMPDEST POP CALLDATALOAD SWAP2 SWAP1 POP JUMP JUMPDEST PUSH1 0x0 DUP1 PUSH1 0x40 DUP4 DUP6 SUB SLT ISZERO PUSH2 0x982 JUMPI DUP1 DUP2 REVERT JUMPDEST DUP3 CALLDATALOAD SWAP2 POP PUSH2 0x992 PUSH1 0x20 DUP5 ADD PUSH2 0x84D JUMP JUMPDEST SWAP1 POP SWAP3 POP SWAP3 SWAP1 POP JUMP JUMPDEST ISZERO ISZERO SWAP1 MSTORE JUMP JUMPDEST PUSH1 0xFF AND SWAP1 MSTORE JUMP JUMPDEST PUSH1 0x1 PUSH1 0x1 PUSH1 0xA0 SHL SUB SWAP2 SWAP1 SWAP2 AND DUP2 MSTORE PUSH1 0x20 ADD SWAP1 JUMP JUMPDEST PUSH1 0x20 DUP1 DUP3 MSTORE PUSH1 0x26 SWAP1 DUP3 ADD MSTORE PUSH32 0x4F776E61626C653A206E6577206F776E657220697320746865207A65726F2061 PUSH1 0x40 DUP3 ADD MSTORE PUSH6 0x646472657373 PUSH1 0xD0 SHL PUSH1 0x60 DUP3 ADD MSTORE PUSH1 0x80 ADD SWAP1 JUMP JUMPDEST PUSH1 0x20 DUP1 DUP3 MSTORE DUP2 DUP2 ADD MSTORE PUSH32 0x4F776E61626C653A2063616C6C6572206973206E6F7420746865206F776E6572 PUSH1 0x40 DUP3 ADD MSTORE PUSH1 0x60 ADD SWAP1 JUMP JUMPDEST PUSH1 0x20 DUP1 DUP3 MSTORE PUSH1 0x16 SWAP1 DUP3 ADD MSTORE PUSH22 0x29B2B73232B9103737BA1030BABA3437B934BD32B217 PUSH1 0x51 SHL PUSH1 0x40 DUP3 ADD MSTORE PUSH1 0x60 ADD SWAP1 JUMP JUMPDEST DUP2 SLOAD DUP2 MSTORE PUSH1 0x1 DUP3 ADD SLOAD PUSH1 0x20 DUP3 ADD MSTORE PUSH1 0x2 DUP3 ADD SLOAD PUSH2 0x160 DUP3 ADD SWAP1 PUSH1 0xFF PUSH2 0xA91 PUSH1 0x40 DUP6 ADD DUP3 DUP5 AND PUSH2 0x9A1 JUMP JUMPDEST PUSH2 0xAA3 PUSH1 0x60 DUP6 ADD DUP3 DUP5 PUSH1 0x8 SHR AND PUSH2 0x9A1 JUMP JUMPDEST PUSH2 0xAB5 PUSH1 0x80 DUP6 ADD DUP3 DUP5 PUSH1 0x10 SHR AND PUSH2 0x99B JUMP JUMPDEST PUSH2 0xAC7 PUSH1 0xA0 DUP6 ADD DUP3 DUP5 PUSH1 0x18 SHR AND PUSH2 0x99B JUMP JUMPDEST PUSH1 0x3 DUP6 ADD SLOAD PUSH1 0xC0 DUP6 ADD MSTORE PUSH1 0x4 DUP6 ADD SLOAD SWAP2 POP PUSH2 0xAE7 PUSH1 0xE0 DUP6 ADD DUP3 DUP5 AND PUSH2 0x99B JUMP JUMPDEST PUSH2 0xAFA PUSH2 0x100 DUP6 ADD DUP3 DUP5 PUSH1 0x8 SHR AND PUSH2 0x99B JUMP JUMPDEST POP POP PUSH1 0x5 DUP4 ADD SLOAD PUSH2 0x120 DUP4 ADD MSTORE PUSH1 0x6 SWAP1 SWAP3 ADD SLOAD PUSH2 0x140 SWAP1 SWAP2 ADD MSTORE SWAP1 JUMP JUMPDEST SWAP1 DUP2 MSTORE PUSH1 0x20 ADD SWAP1 JUMP JUMPDEST SWAP11 DUP12 MSTORE PUSH1 0x20 DUP12 ADD SWAP10 SWAP1 SWAP10 MSTORE PUSH1 0xFF SWAP8 DUP9 AND PUSH1 0x40 DUP12 ADD MSTORE SWAP6 SWAP1 SWAP7 AND PUSH1 0x60 DUP10 ADD MSTORE SWAP3 ISZERO ISZERO PUSH1 0x80 DUP9 ADD MSTORE SWAP1 ISZERO ISZERO PUSH1 0xA0 DUP8 ADD MSTORE PUSH1 0xC0 DUP7 ADD MSTORE ISZERO ISZERO PUSH1 0xE0 DUP6 ADD MSTORE SWAP1 ISZERO ISZERO PUSH2 0x100 DUP5 ADD MSTORE PUSH2 0x120 DUP4 ADD MSTORE PUSH2 0x140 DUP3 ADD MSTORE PUSH2 0x160 ADD SWAP1 JUMP JUMPDEST PUSH1 0x40 MLOAD DUP2 DUP2 ADD PUSH8 0xFFFFFFFFFFFFFFFF DUP2 GT DUP3 DUP3 LT OR ISZERO PUSH2 0xBA6 JUMPI PUSH4 0x4E487B71 PUSH1 0xE0 SHL PUSH1 0x0 MSTORE PUSH1 0x41 PUSH1 0x4 MSTORE PUSH1 0x24 PUSH1 0x0 REVERT JUMPDEST PUSH1 0x40 MSTORE SWAP2 SWAP1 POP JUMP JUMPDEST PUSH1 0x0 DUP3 NOT DUP3 GT ISZERO PUSH2 0xBCD JUMPI PUSH4 0x4E487B71 PUSH1 0xE0 SHL DUP2 MSTORE PUSH1 0x11 PUSH1 0x4 MSTORE PUSH1 0x24 DUP2 REVERT JUMPDEST POP ADD SWAP1 JUMP INVALID LOG2 PUSH5 0x6970667358 0x22 SLT KECCAK256 0xEB 0x2D PUSH17 0x48DDAEB86F1756E974C86705EC51BFA777 BLOCKHASH CHAINID 0x48 NUMBER PUSH29 0xAE896CA09522A464736F6C634300080000330000000000000000000000 ","sha1":"7411d399d86570e7bb2278acf6901db806b4088d","source":"// SPDX-License-Identifier: GPL-3.0\npragma solidity ^0.8.0;\n\n//import \"BokkyPooBahsDateTimeLibrary/contracts/BokkyPooBahsDateTimeLibrary.sol\";\nimport \"contracts/Ownable.sol\";\nimport \"contracts/console.sol\";\n//import \"@openzeppelin/contracts/access/Roles.sol\";\n\n/// @title A software evaluation license system\n/// @author Florian Idelberger\n/// @notice A license contract to provide software evaluation licenses and functions to check status\n/// @dev //@TODO payment of owner and withdrawal of balance not implemented. transfer possible via ownable.sol\n\ncontract LicenseContract is Ownable {\n\n    // Constructor\n    function LicenseContractManager() public {\n        //uint[] public licensesList;\n        //uint numLicenses;\n    }\n\n// Events\nevent Status(LicenseContract.License);\n\nmapping(uint256 => address) public licensor;\nmapping(uint256 => address) public licensee;\nmapping(uint256 => address) public arbiter;\nmapping(uint256 => License) public licenses;\n\nstruct License {\n    uint256 licenseID;\n    bytes32 work_hash;\n    uint8 licenseFee;\n    uint8 breachFee;\n    bool isCommissioned;\n    bool publicationIsApproved;\n    // can this be set to default value?\n    uint timeToRemove;\n    bool licenseBreached;\n    bool breachFeePaid;\n    uint startdate;\n    uint enddate;\n}\n\n// could also use roles but... simpler for now\nmodifier onlyBy(address _account)\n    {require(msg.sender == (_account),\n          \"Sender not authorized.\");\n        _;}\n\n/// @notice Create a new license and add it to the mapping of licenses.\n/// @dev T\n/// @param _license pass a license struct\n/// @return _licenseID of the created license.\n//@TODO change all to uint probbaly\nfunction newLicense(License memory _license) public onlyOwner returns (uint _licenseID) {\n    // uint256 _licenseTerm, uint8 _licenseFee, uint8 _breachFee, bool _isCommissioned, bool _publicationIsApproved, bool _requiresComments, uint _timeToRemove, bool _triggeredTimeToRemove, bool _licenseBreached, bool _breachFeePaid, uint _startdate, uint _enddate\n  // add some checks etc....\n  payable(licensee[_licenseID]).transfer(_license.licenseFee);\n  {\n        licensor[_licenseID] = owner();\n        }\n        //licensee[_licenseID] = _license.licensee;\n        {\n        licenses[_licenseID] = _license;\n        }\n        //_isCommissioned, _publicationIsApproved, _requiresComments, _timeToRemove, _triggeredTimeToRemove, _licenseBreached, _breachFeePaid, _startdate, _enddate);\n        // sublicensees = _sublicensees;\n        return _licenseID; }\n\n/// @notice \n/// @dev \n/// @param _licenseID of the license to be modified\nfunction commissionComments(uint _licenseID) public onlyBy(licensor[_licenseID]) {\n    License storage l = licenses[_licenseID];\n    l.publicationIsApproved = true;\n    l.isCommissioned = true; }\n\n/// @notice \n/// @dev \n/// @param _licenseID of the license to be modified\nfunction grantApproval(uint _licenseID) public onlyBy(licensor[_licenseID]) {\n    License storage l = licenses[_licenseID];\n    l.publicationIsApproved = true; }\n\n/// @notice \n/// @dev \n/// @param _licenseID of the license to be modified\nfunction evalPublication(uint _licenseID, bool isPublished) public {\n    License storage l = licenses[_licenseID];\n    if (isPublished) {\n        if ((isPublished && !l.isCommissioned || !l.publicationIsApproved) ) { // &&!triggerTimetoRempove\n            l.timeToRemove = block.timestamp;\n            //l.triggeredTimeToRemove = true;\n        } else if (block.timestamp > l.timeToRemove + 1 days ) { //l.triggeredTimeToRemove && B...\n            declareBreach(_licenseID);\n        }    }\n    emit Status(l); }\n\n/// @notice \n/// @dev \n/// @param _licenseID of the license to be modified\nfunction declareRemoved(uint _licenseID) public onlyBy(arbiter[_licenseID]) {\n    License storage l = licenses[_licenseID];\n    l.timeToRemove = 0;\n    //l.triggeredTimeToRemove = false;\n}\n\n/// @notice \n/// @dev \n/// @param _licenseID of the license to be modified\nfunction declareBreach(uint _licenseID) public onlyBy(arbiter[_licenseID]) {\n    License storage l = licenses[_licenseID];\n    l.licenseBreached = true;\n    if (!(l.breachFeePaid)) {\n        //console.log('breachfeepaid is %s', l.breachFeePaid);\n        l.breachFeePaid = false;\n        payable(licensor[_licenseID]).transfer(l.breachFee);\n        }     } }\n","sourcePath":"contracts/license.sol","type":"contract","deployment":{"address":"0x189a7fBB0038D4b55Bd03840be0B0a38De034089","chainid":"dev","blockHeight":3}}